{
  "_format": "hh-sol-artifact-1",
  "contractName": "TokenShop",
  "sourceName": "contracts/TokenShop.sol",
  "abi": [
    {
      "inputs": [
        {
          "internalType": "uint256",
          "name": "_maxTokenCount",
          "type": "uint256"
        }
      ],
      "stateMutability": "nonpayable",
      "type": "constructor"
    },
    {
      "anonymous": false,
      "inputs": [
        {
          "indexed": false,
          "internalType": "uint256",
          "name": "amount",
          "type": "uint256"
        },
        {
          "indexed": false,
          "internalType": "uint256",
          "name": "timestamp",
          "type": "uint256"
        }
      ],
      "name": "Burn",
      "type": "event"
    },
    {
      "anonymous": false,
      "inputs": [
        {
          "indexed": true,
          "internalType": "address",
          "name": "buyer",
          "type": "address"
        },
        {
          "indexed": false,
          "internalType": "uint256",
          "name": "amount",
          "type": "uint256"
        },
        {
          "indexed": false,
          "internalType": "uint256",
          "name": "timestamp",
          "type": "uint256"
        }
      ],
      "name": "Buy",
      "type": "event"
    },
    {
      "anonymous": false,
      "inputs": [
        {
          "indexed": false,
          "internalType": "uint256",
          "name": "oldValue",
          "type": "uint256"
        },
        {
          "indexed": false,
          "internalType": "uint256",
          "name": "newValue",
          "type": "uint256"
        },
        {
          "indexed": false,
          "internalType": "uint256",
          "name": "timestamp",
          "type": "uint256"
        }
      ],
      "name": "BuyPriceChange",
      "type": "event"
    },
    {
      "anonymous": false,
      "inputs": [
        {
          "indexed": false,
          "internalType": "uint256",
          "name": "amount",
          "type": "uint256"
        },
        {
          "indexed": false,
          "internalType": "uint256",
          "name": "timestamp",
          "type": "uint256"
        }
      ],
      "name": "Mint",
      "type": "event"
    },
    {
      "anonymous": false,
      "inputs": [
        {
          "indexed": true,
          "internalType": "address",
          "name": "previousOwner",
          "type": "address"
        },
        {
          "indexed": true,
          "internalType": "address",
          "name": "newOwner",
          "type": "address"
        }
      ],
      "name": "OwnershipTransferred",
      "type": "event"
    },
    {
      "anonymous": false,
      "inputs": [
        {
          "indexed": false,
          "internalType": "bool",
          "name": "paused",
          "type": "bool"
        },
        {
          "indexed": false,
          "internalType": "uint256",
          "name": "timestamp",
          "type": "uint256"
        }
      ],
      "name": "PausedChange",
      "type": "event"
    },
    {
      "anonymous": false,
      "inputs": [
        {
          "indexed": true,
          "internalType": "address",
          "name": "seller",
          "type": "address"
        },
        {
          "indexed": false,
          "internalType": "uint256",
          "name": "amount",
          "type": "uint256"
        },
        {
          "indexed": false,
          "internalType": "uint256",
          "name": "timestamp",
          "type": "uint256"
        }
      ],
      "name": "Sell",
      "type": "event"
    },
    {
      "anonymous": false,
      "inputs": [
        {
          "indexed": false,
          "internalType": "uint256",
          "name": "oldValue",
          "type": "uint256"
        },
        {
          "indexed": false,
          "internalType": "uint256",
          "name": "newValue",
          "type": "uint256"
        },
        {
          "indexed": false,
          "internalType": "uint256",
          "name": "timestamp",
          "type": "uint256"
        }
      ],
      "name": "SellPriceChange",
      "type": "event"
    },
    {
      "inputs": [
        {
          "internalType": "uint256",
          "name": "amount",
          "type": "uint256"
        }
      ],
      "name": "burnFromShop",
      "outputs": [],
      "stateMutability": "nonpayable",
      "type": "function"
    },
    {
      "inputs": [],
      "name": "buyTokens",
      "outputs": [],
      "stateMutability": "payable",
      "type": "function"
    },
    {
      "inputs": [],
      "name": "getTokenPriceForBuy",
      "outputs": [
        {
          "internalType": "uint256",
          "name": "",
          "type": "uint256"
        }
      ],
      "stateMutability": "view",
      "type": "function"
    },
    {
      "inputs": [],
      "name": "getTokenPriceForSell",
      "outputs": [
        {
          "internalType": "uint256",
          "name": "",
          "type": "uint256"
        }
      ],
      "stateMutability": "view",
      "type": "function"
    },
    {
      "inputs": [],
      "name": "maxTokenCount",
      "outputs": [
        {
          "internalType": "uint256",
          "name": "",
          "type": "uint256"
        }
      ],
      "stateMutability": "view",
      "type": "function"
    },
    {
      "inputs": [
        {
          "internalType": "uint256",
          "name": "amount",
          "type": "uint256"
        }
      ],
      "name": "mintToShop",
      "outputs": [],
      "stateMutability": "nonpayable",
      "type": "function"
    },
    {
      "inputs": [],
      "name": "owner",
      "outputs": [
        {
          "internalType": "address",
          "name": "",
          "type": "address"
        }
      ],
      "stateMutability": "view",
      "type": "function"
    },
    {
      "inputs": [],
      "name": "pause",
      "outputs": [],
      "stateMutability": "nonpayable",
      "type": "function"
    },
    {
      "inputs": [],
      "name": "paused",
      "outputs": [
        {
          "internalType": "bool",
          "name": "",
          "type": "bool"
        }
      ],
      "stateMutability": "view",
      "type": "function"
    },
    {
      "inputs": [],
      "name": "renounceOwnership",
      "outputs": [],
      "stateMutability": "nonpayable",
      "type": "function"
    },
    {
      "inputs": [
        {
          "internalType": "uint256",
          "name": "amount",
          "type": "uint256"
        }
      ],
      "name": "sellTokens",
      "outputs": [],
      "stateMutability": "nonpayable",
      "type": "function"
    },
    {
      "inputs": [
        {
          "internalType": "uint256",
          "name": "tokenPriceForBuy_",
          "type": "uint256"
        }
      ],
      "name": "setTokenPriceForBuy",
      "outputs": [],
      "stateMutability": "nonpayable",
      "type": "function"
    },
    {
      "inputs": [
        {
          "internalType": "uint256",
          "name": "tokenPriceForSell_",
          "type": "uint256"
        }
      ],
      "name": "setTokenPriceForSell",
      "outputs": [],
      "stateMutability": "nonpayable",
      "type": "function"
    },
    {
      "inputs": [],
      "name": "token",
      "outputs": [
        {
          "internalType": "contract Token",
          "name": "",
          "type": "address"
        }
      ],
      "stateMutability": "view",
      "type": "function"
    },
    {
      "inputs": [
        {
          "internalType": "address",
          "name": "account",
          "type": "address"
        }
      ],
      "name": "tokenBalance",
      "outputs": [
        {
          "internalType": "uint256",
          "name": "",
          "type": "uint256"
        }
      ],
      "stateMutability": "view",
      "type": "function"
    },
    {
      "inputs": [
        {
          "internalType": "address",
          "name": "newOwner",
          "type": "address"
        }
      ],
      "name": "transferOwnership",
      "outputs": [],
      "stateMutability": "nonpayable",
      "type": "function"
    },
    {
      "inputs": [],
      "name": "unpause",
      "outputs": [],
      "stateMutability": "nonpayable",
      "type": "function"
    }
  ],
  "bytecode": "0x60806040526009600255600a6003553480156200001b57600080fd5b5060405162004cd038038062004cd08339818101604052810190620000419190620001fb565b6200006162000055620000e160201b60201c565b620000e960201b60201c565b806040516200007090620001ad565b6200007c91906200023e565b604051809103906000f08015801562000099573d6000803e3d6000fd5b50600160006101000a81548173ffffffffffffffffffffffffffffffffffffffff021916908373ffffffffffffffffffffffffffffffffffffffff160217905550506200025b565b600033905090565b60008060009054906101000a900473ffffffffffffffffffffffffffffffffffffffff169050816000806101000a81548173ffffffffffffffffffffffffffffffffffffffff021916908373ffffffffffffffffffffffffffffffffffffffff1602179055508173ffffffffffffffffffffffffffffffffffffffff168173ffffffffffffffffffffffffffffffffffffffff167f8be0079c531659141344cd1fd0a4f28419497f9722a3daafe3b4186f6b6457e060405160405180910390a35050565b61293e806200239283390190565b600080fd5b6000819050919050565b620001d581620001c0565b8114620001e157600080fd5b50565b600081519050620001f581620001ca565b92915050565b600060208284031215620002145762000213620001bb565b5b60006200022484828501620001e4565b91505092915050565b6200023881620001c0565b82525050565b60006020820190506200025560008301846200022d565b92915050565b612127806200026b6000396000f3fe6080604052600436106100fe5760003560e01c80638456cb5911610095578063d0febe4c11610064578063d0febe4c146102c1578063e68fe922146102cb578063eedc966a146102f6578063f2fde38b14610333578063fc0c546a1461035c576100fe565b80638456cb591461022b5780638da5cb5b14610242578063b938b5c71461026d578063c4e627c214610296576100fe565b80635c975abb116100d15780635c975abb146101975780636c11bcd3146101c2578063715018a6146101eb5780637e26dbe014610202576100fe565b80632499b22914610103578063331772a01461012c5780633f4ba83a1461015757806348179e621461016e575b600080fd5b34801561010f57600080fd5b5061012a600480360381019061012591906114fc565b610387565b005b34801561013857600080fd5b50610141610458565b60405161014e9190611538565b60405180910390f35b34801561016357600080fd5b5061016c610462565b005b34801561017a57600080fd5b50610195600480360381019061019091906114fc565b610528565b005b3480156101a357600080fd5b506101ac6105bb565b6040516101b9919061156e565b60405180910390f35b3480156101ce57600080fd5b506101e960048036038101906101e491906114fc565b610662565b005b3480156101f757600080fd5b50610200610c62565b005b34801561020e57600080fd5b50610229600480360381019061022491906114fc565b610c76565b005b34801561023757600080fd5b50610240610d09565b005b34801561024e57600080fd5b50610257610dcf565b60405161026491906115ca565b60405180910390f35b34801561027957600080fd5b50610294600480360381019061028f91906114fc565b610df8565b005b3480156102a257600080fd5b506102ab610ecb565b6040516102b89190611538565b60405180910390f35b6102c9610f72565b005b3480156102d757600080fd5b506102e061120f565b6040516102ed9190611538565b60405180910390f35b34801561030257600080fd5b5061031d60048036038101906103189190611611565b611219565b60405161032a9190611538565b60405180910390f35b34801561033f57600080fd5b5061035a60048036038101906103559190611611565b6112cd565b005b34801561036857600080fd5b50610371611351565b60405161037e919061169d565b60405180910390f35b61038f611377565b600160009054906101000a900473ffffffffffffffffffffffffffffffffffffffff1673ffffffffffffffffffffffffffffffffffffffff166342966c68826040518263ffffffff1660e01b81526004016103ea9190611538565b600060405180830381600087803b15801561040457600080fd5b505af1158015610418573d6000803e3d6000fd5b505050507f410c5c259085cde81fedf70c1aa308ec839373c26e9b7ada6560a2aca0254eb6814260405161044d9291906116b8565b60405180910390a150565b6000600254905090565b61046a611377565b600160009054906101000a900473ffffffffffffffffffffffffffffffffffffffff1673ffffffffffffffffffffffffffffffffffffffff16633f4ba83a6040518163ffffffff1660e01b8152600401600060405180830381600087803b1580156104d457600080fd5b505af11580156104e8573d6000803e3d6000fd5b505050507f5fde3aef025847f9bfcea817a81a54bbc842a82564262f76b81f01deca2c2e8860004260405161051e9291906116e1565b60405180910390a1565b610530611377565b6000811415610574576040517f08c379a000000000000000000000000000000000000000000000000000000000815260040161056b9061178d565b60405180910390fd5b7fc51f2f43739cb95046c22a610be10cadf4f1bd1155d90056716273b3b946586960035482426040516105a9939291906117ad565b60405180910390a18060038190555050565b6000600160009054906101000a900473ffffffffffffffffffffffffffffffffffffffff1673ffffffffffffffffffffffffffffffffffffffff16635c975abb6040518163ffffffff1660e01b815260040160206040518083038186803b15801561062557600080fd5b505afa158015610639573d6000803e3d6000fd5b505050506040513d601f19601f8201168201806040525081019061065d9190611810565b905090565b600081116106a5576040517f08c379a000000000000000000000000000000000000000000000000000000000815260040161069c906118af565b60405180910390fd5b600160009054906101000a900473ffffffffffffffffffffffffffffffffffffffff1673ffffffffffffffffffffffffffffffffffffffff1663313ce5676040518163ffffffff1660e01b815260040160206040518083038186803b15801561070d57600080fd5b505afa158015610721573d6000803e3d6000fd5b505050506040513d601f19601f820116820180604052508101906107459190611908565b600a6107519190611a97565b8161075c9190611ae2565b600160009054906101000a900473ffffffffffffffffffffffffffffffffffffffff1673ffffffffffffffffffffffffffffffffffffffff166370a08231336040518263ffffffff1660e01b81526004016107b791906115ca565b60206040518083038186803b1580156107cf57600080fd5b505afa1580156107e3573d6000803e3d6000fd5b505050506040513d601f19601f820116820180604052508101906108079190611b51565b1015610848576040517f08c379a000000000000000000000000000000000000000000000000000000000815260040161083f90611bf0565b60405180910390fd5b600160009054906101000a900473ffffffffffffffffffffffffffffffffffffffff1673ffffffffffffffffffffffffffffffffffffffff1663313ce5676040518163ffffffff1660e01b815260040160206040518083038186803b1580156108b057600080fd5b505afa1580156108c4573d6000803e3d6000fd5b505050506040513d601f19601f820116820180604052508101906108e89190611908565b600a6108f49190611a97565b816108ff9190611ae2565b600160009054906101000a900473ffffffffffffffffffffffffffffffffffffffff1673ffffffffffffffffffffffffffffffffffffffff1663dd62ed3e33306040518363ffffffff1660e01b815260040161095c929190611c10565b60206040518083038186803b15801561097457600080fd5b505afa158015610988573d6000803e3d6000fd5b505050506040513d601f19601f820116820180604052508101906109ac9190611b51565b10156109ed576040517f08c379a00000000000000000000000000000000000000000000000000000000081526004016109e490611cd1565b60405180910390fd5b600160009054906101000a900473ffffffffffffffffffffffffffffffffffffffff1673ffffffffffffffffffffffffffffffffffffffff166323b872dd3330600160009054906101000a900473ffffffffffffffffffffffffffffffffffffffff1673ffffffffffffffffffffffffffffffffffffffff1663313ce5676040518163ffffffff1660e01b815260040160206040518083038186803b158015610a9557600080fd5b505afa158015610aa9573d6000803e3d6000fd5b505050506040513d601f19601f82011682018060405250810190610acd9190611908565b600a610ad99190611a97565b85610ae49190611ae2565b6040518463ffffffff1660e01b8152600401610b0293929190611cf1565b602060405180830381600087803b158015610b1c57600080fd5b505af1158015610b30573d6000803e3d6000fd5b505050506040513d601f19601f82011682018060405250810190610b549190611810565b5060003373ffffffffffffffffffffffffffffffffffffffff1660025483610b7c9190611ae2565b604051610b8890611d59565b60006040518083038185875af1925050503d8060008114610bc5576040519150601f19603f3d011682016040523d82523d6000602084013e610bca565b606091505b5050905080610c0e576040517f08c379a0000000000000000000000000000000000000000000000000000000008152600401610c0590611de0565b60405180910390fd5b3373ffffffffffffffffffffffffffffffffffffffff167fed7a144fad14804d5c249145e3e0e2b63a9eb455b76aee5bc92d711e9bba3e4a8342604051610c569291906116b8565b60405180910390a25050565b610c6a611377565b610c7460006113f5565b565b610c7e611377565b6000811415610cc2576040517f08c379a0000000000000000000000000000000000000000000000000000000008152600401610cb99061178d565b60405180910390fd5b7ff9aea6c21b2baa7ae021ebae1bed9841ebdb98f9e973a69bfc1a909000c78fed6002548242604051610cf7939291906117ad565b60405180910390a18060028190555050565b610d11611377565b600160009054906101000a900473ffffffffffffffffffffffffffffffffffffffff1673ffffffffffffffffffffffffffffffffffffffff16638456cb596040518163ffffffff1660e01b8152600401600060405180830381600087803b158015610d7b57600080fd5b505af1158015610d8f573d6000803e3d6000fd5b505050507f5fde3aef025847f9bfcea817a81a54bbc842a82564262f76b81f01deca2c2e88600142604051610dc59291906116e1565b60405180910390a1565b60008060009054906101000a900473ffffffffffffffffffffffffffffffffffffffff16905090565b610e00611377565b600160009054906101000a900473ffffffffffffffffffffffffffffffffffffffff1673ffffffffffffffffffffffffffffffffffffffff166340c10f1930836040518363ffffffff1660e01b8152600401610e5d929190611e00565b600060405180830381600087803b158015610e7757600080fd5b505af1158015610e8b573d6000803e3d6000fd5b505050507fcc9c58b575eabd3f6a1ee653e91fcea3ff546867ffc3782a3bbca1f9b6dbb8df8142604051610ec09291906116b8565b60405180910390a150565b6000600160009054906101000a900473ffffffffffffffffffffffffffffffffffffffff1673ffffffffffffffffffffffffffffffffffffffff1663355274ea6040518163ffffffff1660e01b815260040160206040518083038186803b158015610f3557600080fd5b505afa158015610f49573d6000803e3d6000fd5b505050506040513d601f19601f82011682018060405250810190610f6d9190611b51565b905090565b60003411610fb5576040517f08c379a0000000000000000000000000000000000000000000000000000000008152600401610fac90611e75565b60405180910390fd5b6000600160009054906101000a900473ffffffffffffffffffffffffffffffffffffffff1673ffffffffffffffffffffffffffffffffffffffff1663313ce5676040518163ffffffff1660e01b815260040160206040518083038186803b15801561101f57600080fd5b505afa158015611033573d6000803e3d6000fd5b505050506040513d601f19601f820116820180604052508101906110579190611908565b600a6110639190611a97565b600354346110719190611ec4565b61107b9190611ae2565b90508061108730611219565b10156110c8576040517f08c379a00000000000000000000000000000000000000000000000000000000081526004016110bf90611f41565b60405180910390fd5b6000600160009054906101000a900473ffffffffffffffffffffffffffffffffffffffff1673ffffffffffffffffffffffffffffffffffffffff1663a9059cbb33846040518363ffffffff1660e01b8152600401611127929190611e00565b602060405180830381600087803b15801561114157600080fd5b505af1158015611155573d6000803e3d6000fd5b505050506040513d601f19601f820116820180604052508101906111799190611810565b9050806111bb576040517f08c379a00000000000000000000000000000000000000000000000000000000081526004016111b290611fd3565b60405180910390fd5b3373ffffffffffffffffffffffffffffffffffffffff167f1cbc5ab135991bd2b6a4b034a04aa2aa086dac1371cb9b16b8b5e2ed6b036bed83426040516112039291906116b8565b60405180910390a25050565b6000600354905090565b6000600160009054906101000a900473ffffffffffffffffffffffffffffffffffffffff1673ffffffffffffffffffffffffffffffffffffffff166370a08231836040518263ffffffff1660e01b815260040161127691906115ca565b60206040518083038186803b15801561128e57600080fd5b505afa1580156112a2573d6000803e3d6000fd5b505050506040513d601f19601f820116820180604052508101906112c69190611b51565b9050919050565b6112d5611377565b600073ffffffffffffffffffffffffffffffffffffffff168173ffffffffffffffffffffffffffffffffffffffff161415611345576040517f08c379a000000000000000000000000000000000000000000000000000000000815260040161133c90612065565b60405180910390fd5b61134e816113f5565b50565b600160009054906101000a900473ffffffffffffffffffffffffffffffffffffffff1681565b61137f6114b9565b73ffffffffffffffffffffffffffffffffffffffff1661139d610dcf565b73ffffffffffffffffffffffffffffffffffffffff16146113f3576040517f08c379a00000000000000000000000000000000000000000000000000000000081526004016113ea906120d1565b60405180910390fd5b565b60008060009054906101000a900473ffffffffffffffffffffffffffffffffffffffff169050816000806101000a81548173ffffffffffffffffffffffffffffffffffffffff021916908373ffffffffffffffffffffffffffffffffffffffff1602179055508173ffffffffffffffffffffffffffffffffffffffff168173ffffffffffffffffffffffffffffffffffffffff167f8be0079c531659141344cd1fd0a4f28419497f9722a3daafe3b4186f6b6457e060405160405180910390a35050565b600033905090565b600080fd5b6000819050919050565b6114d9816114c6565b81146114e457600080fd5b50565b6000813590506114f6816114d0565b92915050565b600060208284031215611512576115116114c1565b5b6000611520848285016114e7565b91505092915050565b611532816114c6565b82525050565b600060208201905061154d6000830184611529565b92915050565b60008115159050919050565b61156881611553565b82525050565b6000602082019050611583600083018461155f565b92915050565b600073ffffffffffffffffffffffffffffffffffffffff82169050919050565b60006115b482611589565b9050919050565b6115c4816115a9565b82525050565b60006020820190506115df60008301846115bb565b92915050565b6115ee816115a9565b81146115f957600080fd5b50565b60008135905061160b816115e5565b92915050565b600060208284031215611627576116266114c1565b5b6000611635848285016115fc565b91505092915050565b6000819050919050565b600061166361165e61165984611589565b61163e565b611589565b9050919050565b600061167582611648565b9050919050565b60006116878261166a565b9050919050565b6116978161167c565b82525050565b60006020820190506116b2600083018461168e565b92915050565b60006040820190506116cd6000830185611529565b6116da6020830184611529565b9392505050565b60006040820190506116f6600083018561155f565b6117036020830184611529565b9392505050565b600082825260208201905092915050565b7f546f6b656e2073686f703a20707269636520636f756c64206e6f74206265206560008201527f7175616c20300000000000000000000000000000000000000000000000000000602082015250565b600061177760268361170a565b91506117828261171b565b604082019050919050565b600060208201905081810360008301526117a68161176a565b9050919050565b60006060820190506117c26000830186611529565b6117cf6020830185611529565b6117dc6040830184611529565b949350505050565b6117ed81611553565b81146117f857600080fd5b50565b60008151905061180a816117e4565b92915050565b600060208284031215611826576118256114c1565b5b6000611834848285016117fb565b91505092915050565b7f546f6b656e2073686f703a20616d6f756e7420746f6b656e20746f2073656c6c60008201527f2063616e206e6f7420626520657175616c20746f203000000000000000000000602082015250565b600061189960368361170a565b91506118a48261183d565b604082019050919050565b600060208201905081810360008301526118c88161188c565b9050919050565b600060ff82169050919050565b6118e5816118cf565b81146118f057600080fd5b50565b600081519050611902816118dc565b92915050565b60006020828403121561191e5761191d6114c1565b5b600061192c848285016118f3565b91505092915050565b7f4e487b7100000000000000000000000000000000000000000000000000000000600052601160045260246000fd5b60008160011c9050919050565b6000808291508390505b60018511156119bb5780860481111561199757611996611935565b5b60018516156119a65780820291505b80810290506119b485611964565b945061197b565b94509492505050565b6000826119d45760019050611a90565b816119e25760009050611a90565b81600181146119f85760028114611a0257611a31565b6001915050611a90565b60ff841115611a1457611a13611935565b5b8360020a915084821115611a2b57611a2a611935565b5b50611a90565b5060208310610133831016604e8410600b8410161715611a665782820a905083811115611a6157611a60611935565b5b611a90565b611a738484846001611971565b92509050818404811115611a8a57611a89611935565b5b81810290505b9392505050565b6000611aa2826114c6565b9150611aad836118cf565b9250611ada7fffffffffffffffffffffffffffffffffffffffffffffffffffffffffffffffff84846119c4565b905092915050565b6000611aed826114c6565b9150611af8836114c6565b9250817fffffffffffffffffffffffffffffffffffffffffffffffffffffffffffffffff0483118215151615611b3157611b30611935565b5b828202905092915050565b600081519050611b4b816114d0565b92915050565b600060208284031215611b6757611b666114c1565b5b6000611b7584828501611b3c565b91505092915050565b7f546f6b656e2073686f703a2073656c6c657220646f6573206e6f74206861766560008201527f20656e6f75676820746f6b656e73000000000000000000000000000000000000602082015250565b6000611bda602e8361170a565b9150611be582611b7e565b604082019050919050565b60006020820190508181036000830152611c0981611bcd565b9050919050565b6000604082019050611c2560008301856115bb565b611c3260208301846115bb565b9392505050565b7f546f6b656e2073686f703a2073656c6c657220646964206e6f7420616c6c6f7760008201527f207468652073686f7020746f207472616e73666572207375636820616d6f756e60208201527f74206f6620746f6b656e73000000000000000000000000000000000000000000604082015250565b6000611cbb604b8361170a565b9150611cc682611c39565b606082019050919050565b60006020820190508181036000830152611cea81611cae565b9050919050565b6000606082019050611d0660008301866115bb565b611d1360208301856115bb565b611d206040830184611529565b949350505050565b600081905092915050565b50565b6000611d43600083611d28565b9150611d4e82611d33565b600082019050919050565b6000611d6482611d36565b9150819050919050565b7f546f6b656e2073686f703a207472616e7366657220657468657220746f20736560008201527f6c6c6572206661696c6564000000000000000000000000000000000000000000602082015250565b6000611dca602b8361170a565b9150611dd582611d6e565b604082019050919050565b60006020820190508181036000830152611df981611dbd565b9050919050565b6000604082019050611e1560008301856115bb565b611e226020830184611529565b9392505050565b7f546f6b656e2073686f703a206574686572732076616c75652069732030000000600082015250565b6000611e5f601d8361170a565b9150611e6a82611e29565b602082019050919050565b60006020820190508181036000830152611e8e81611e52565b9050919050565b7f4e487b7100000000000000000000000000000000000000000000000000000000600052601260045260246000fd5b6000611ecf826114c6565b9150611eda836114c6565b925082611eea57611ee9611e95565b5b828204905092915050565b7f546f6b656e2073686f703a206e6f7420656e6f75676820746f6b656e73000000600082015250565b6000611f2b601d8361170a565b9150611f3682611ef5565b602082019050919050565b60006020820190508181036000830152611f5a81611f1e565b9050919050565b7f546f6b656e2073686f703a206661696c656420746f207472616e73666572207460008201527f6f6b656e7320746f206275796572000000000000000000000000000000000000602082015250565b6000611fbd602e8361170a565b9150611fc882611f61565b604082019050919050565b60006020820190508181036000830152611fec81611fb0565b9050919050565b7f4f776e61626c653a206e6577206f776e657220697320746865207a65726f206160008201527f6464726573730000000000000000000000000000000000000000000000000000602082015250565b600061204f60268361170a565b915061205a82611ff3565b604082019050919050565b6000602082019050818103600083015261207e81612042565b9050919050565b7f4f776e61626c653a2063616c6c6572206973206e6f7420746865206f776e6572600082015250565b60006120bb60208361170a565b91506120c682612085565b602082019050919050565b600060208201905081810360008301526120ea816120ae565b905091905056fea2646970667358221220cf82a65c71f15cd2c0589f81dc360f8fa6c308409279e1f7433f6a9d3747087a64736f6c6343000809003360a06040523480156200001157600080fd5b506040516200293e3803806200293e833981810160405281019062000037919062000628565b806040518060400160405280601181526020017f416c657820416c7472657820546f6b656e0000000000000000000000000000008152506040518060400160405280600381526020017f41415400000000000000000000000000000000000000000000000000000000008152508160039080519060200190620000bc92919062000538565b508060049080519060200190620000d592919062000538565b5050506000600560006101000a81548160ff0219169083151502179055506000811162000139576040517f08c379a00000000000000000000000000000000000000000000000000000000081526004016200013090620006bb565b60405180910390fd5b80608081815250505062000162620001566200017d60201b60201c565b6200018560201b60201c565b62000176336101f46200024b60201b60201c565b5062000952565b600033905090565b6000600560019054906101000a900473ffffffffffffffffffffffffffffffffffffffff16905081600560016101000a81548173ffffffffffffffffffffffffffffffffffffffff021916908373ffffffffffffffffffffffffffffffffffffffff1602179055508173ffffffffffffffffffffffffffffffffffffffff168173ffffffffffffffffffffffffffffffffffffffff167f8be0079c531659141344cd1fd0a4f28419497f9722a3daafe3b4186f6b6457e060405160405180910390a35050565b6200026282826200026660201b620008781760201c565b5050565b62000276620002f760201b60201c565b816200028c6200030160201b620004a11760201c565b6200029891906200070c565b1115620002dc576040517f08c379a0000000000000000000000000000000000000000000000000000000008152600401620002d390620007b9565b60405180910390fd5b620002f382826200030b60201b620008e21760201c565b5050565b6000608051905090565b6000600254905090565b600073ffffffffffffffffffffffffffffffffffffffff168273ffffffffffffffffffffffffffffffffffffffff1614156200037e576040517f08c379a000000000000000000000000000000000000000000000000000000000815260040162000375906200082b565b60405180910390fd5b62000392600083836200047960201b60201c565b8060026000828254620003a691906200070c565b92505081905550806000808473ffffffffffffffffffffffffffffffffffffffff1673ffffffffffffffffffffffffffffffffffffffff168152602001908152602001600020600082825401925050819055508173ffffffffffffffffffffffffffffffffffffffff16600073ffffffffffffffffffffffffffffffffffffffff167fddf252ad1be2c89b69c2b068fc378daa952ba7f163c4a11628f55a4df523b3ef836040516200045991906200085e565b60405180910390a36200047560008383620004a660201b60201c565b5050565b62000489620004ab60201b60201c565b620004a18383836200050060201b62000a391760201c565b505050565b505050565b620004bb6200050560201b60201c565b15620004fe576040517f08c379a0000000000000000000000000000000000000000000000000000000008152600401620004f590620008cb565b60405180910390fd5b565b505050565b60006200051c6200052160201b62000a3e1760201c565b905090565b6000600560009054906101000a900460ff16905090565b82805462000546906200091c565b90600052602060002090601f0160209004810192826200056a5760008555620005b6565b82601f106200058557805160ff1916838001178555620005b6565b82800160010185558215620005b6579182015b82811115620005b557825182559160200191906001019062000598565b5b509050620005c59190620005c9565b5090565b5b80821115620005e4576000816000905550600101620005ca565b5090565b600080fd5b6000819050919050565b6200060281620005ed565b81146200060e57600080fd5b50565b6000815190506200062281620005f7565b92915050565b600060208284031215620006415762000640620005e8565b5b6000620006518482850162000611565b91505092915050565b600082825260208201905092915050565b7f45524332304361707065643a2063617020697320300000000000000000000000600082015250565b6000620006a36015836200065a565b9150620006b0826200066b565b602082019050919050565b60006020820190508181036000830152620006d68162000694565b9050919050565b7f4e487b7100000000000000000000000000000000000000000000000000000000600052601160045260246000fd5b60006200071982620005ed565b91506200072683620005ed565b9250827fffffffffffffffffffffffffffffffffffffffffffffffffffffffffffffffff038211156200075e576200075d620006dd565b5b828201905092915050565b7f45524332304361707065643a2063617020657863656564656400000000000000600082015250565b6000620007a16019836200065a565b9150620007ae8262000769565b602082019050919050565b60006020820190508181036000830152620007d48162000792565b9050919050565b7f45524332303a206d696e7420746f20746865207a65726f206164647265737300600082015250565b600062000813601f836200065a565b91506200082082620007db565b602082019050919050565b60006020820190508181036000830152620008468162000804565b9050919050565b6200085881620005ed565b82525050565b60006020820190506200087560008301846200084d565b92915050565b7f5061757361626c653a2070617573656400000000000000000000000000000000600082015250565b6000620008b36010836200065a565b9150620008c0826200087b565b602082019050919050565b60006020820190508181036000830152620008e681620008a4565b9050919050565b7f4e487b7100000000000000000000000000000000000000000000000000000000600052602260045260246000fd5b600060028204905060018216806200093557607f821691505b602082108114156200094c576200094b620008ed565b5b50919050565b608051611fd06200096e60003960006104e30152611fd06000f3fe608060405234801561001057600080fd5b50600436106101375760003560e01c80635c975abb116100b85780638da5cb5b1161007c5780638da5cb5b1461030457806395d89b4114610322578063a457c2d714610340578063a9059cbb14610370578063dd62ed3e146103a0578063f2fde38b146103d057610137565b80635c975abb1461028657806370a08231146102a4578063715018a6146102d457806379cc6790146102de5780638456cb59146102fa57610137565b8063355274ea116100ff578063355274ea146101f657806339509351146102145780633f4ba83a1461024457806340c10f191461024e57806342966c681461026a57610137565b806306fdde031461013c578063095ea7b31461015a57806318160ddd1461018a57806323b872dd146101a8578063313ce567146101d8575b600080fd5b6101446103ec565b6040516101519190611461565b60405180910390f35b610174600480360381019061016f919061151c565b61047e565b6040516101819190611577565b60405180910390f35b6101926104a1565b60405161019f91906115a1565b60405180910390f35b6101c260048036038101906101bd91906115bc565b6104ab565b6040516101cf9190611577565b60405180910390f35b6101e06104da565b6040516101ed919061162b565b60405180910390f35b6101fe6104df565b60405161020b91906115a1565b60405180910390f35b61022e6004803603810190610229919061151c565b610507565b60405161023b9190611577565b60405180910390f35b61024c61053e565b005b6102686004803603810190610263919061151c565b610550565b005b610284600480360381019061027f9190611646565b610566565b005b61028e61057a565b60405161029b9190611577565b60405180910390f35b6102be60048036038101906102b99190611673565b610589565b6040516102cb91906115a1565b60405180910390f35b6102dc6105d1565b005b6102f860048036038101906102f3919061151c565b6105e5565b005b610302610605565b005b61030c610617565b60405161031991906116af565b60405180910390f35b61032a610641565b6040516103379190611461565b60405180910390f35b61035a6004803603810190610355919061151c565b6106d3565b6040516103679190611577565b60405180910390f35b61038a6004803603810190610385919061151c565b61074a565b6040516103979190611577565b60405180910390f35b6103ba60048036038101906103b591906116ca565b61076d565b6040516103c791906115a1565b60405180910390f35b6103ea60048036038101906103e59190611673565b6107f4565b005b6060600380546103fb90611739565b80601f016020809104026020016040519081016040528092919081815260200182805461042790611739565b80156104745780601f1061044957610100808354040283529160200191610474565b820191906000526020600020905b81548152906001019060200180831161045757829003601f168201915b5050505050905090565b600080610489610a55565b9050610496818585610a5d565b600191505092915050565b6000600254905090565b6000806104b6610a55565b90506104c3858285610c28565b6104ce858585610cb4565b60019150509392505050565b600090565b60007f0000000000000000000000000000000000000000000000000000000000000000905090565b600080610512610a55565b9050610533818585610524858961076d565b61052e919061179a565b610a5d565b600191505092915050565b610546610f2c565b61054e610faa565b565b610558610f2c565b6105628282610878565b5050565b61056e610f2c565b6105778161100d565b50565b6000610584610a3e565b905090565b60008060008373ffffffffffffffffffffffffffffffffffffffff1673ffffffffffffffffffffffffffffffffffffffff168152602001908152602001600020549050919050565b6105d9610f2c565b6105e36000611021565b565b6105f7826105f1610a55565b83610c28565b61060182826110e7565b5050565b61060d610f2c565b6106156112b5565b565b6000600560019054906101000a900473ffffffffffffffffffffffffffffffffffffffff16905090565b60606004805461065090611739565b80601f016020809104026020016040519081016040528092919081815260200182805461067c90611739565b80156106c95780601f1061069e576101008083540402835291602001916106c9565b820191906000526020600020905b8154815290600101906020018083116106ac57829003601f168201915b5050505050905090565b6000806106de610a55565b905060006106ec828661076d565b905083811015610731576040517f08c379a000000000000000000000000000000000000000000000000000000000815260040161072890611862565b60405180910390fd5b61073e8286868403610a5d565b60019250505092915050565b600080610755610a55565b9050610762818585610cb4565b600191505092915050565b6000600160008473ffffffffffffffffffffffffffffffffffffffff1673ffffffffffffffffffffffffffffffffffffffff16815260200190815260200160002060008373ffffffffffffffffffffffffffffffffffffffff1673ffffffffffffffffffffffffffffffffffffffff16815260200190815260200160002054905092915050565b6107fc610f2c565b600073ffffffffffffffffffffffffffffffffffffffff168173ffffffffffffffffffffffffffffffffffffffff16141561086c576040517f08c379a0000000000000000000000000000000000000000000000000000000008152600401610863906118f4565b60405180910390fd5b61087581611021565b50565b6108806104df565b816108896104a1565b610893919061179a565b11156108d4576040517f08c379a00000000000000000000000000000000000000000000000000000000081526004016108cb90611960565b60405180910390fd5b6108de82826108e2565b5050565b600073ffffffffffffffffffffffffffffffffffffffff168273ffffffffffffffffffffffffffffffffffffffff161415610952576040517f08c379a0000000000000000000000000000000000000000000000000000000008152600401610949906119cc565b60405180910390fd5b61095e60008383611318565b8060026000828254610970919061179a565b92505081905550806000808473ffffffffffffffffffffffffffffffffffffffff1673ffffffffffffffffffffffffffffffffffffffff168152602001908152602001600020600082825401925050819055508173ffffffffffffffffffffffffffffffffffffffff16600073ffffffffffffffffffffffffffffffffffffffff167fddf252ad1be2c89b69c2b068fc378daa952ba7f163c4a11628f55a4df523b3ef83604051610a2191906115a1565b60405180910390a3610a3560008383611330565b5050565b505050565b6000600560009054906101000a900460ff16905090565b600033905090565b600073ffffffffffffffffffffffffffffffffffffffff168373ffffffffffffffffffffffffffffffffffffffff161415610acd576040517f08c379a0000000000000000000000000000000000000000000000000000000008152600401610ac490611a5e565b60405180910390fd5b600073ffffffffffffffffffffffffffffffffffffffff168273ffffffffffffffffffffffffffffffffffffffff161415610b3d576040517f08c379a0000000000000000000000000000000000000000000000000000000008152600401610b3490611af0565b60405180910390fd5b80600160008573ffffffffffffffffffffffffffffffffffffffff1673ffffffffffffffffffffffffffffffffffffffff16815260200190815260200160002060008473ffffffffffffffffffffffffffffffffffffffff1673ffffffffffffffffffffffffffffffffffffffff168152602001908152602001600020819055508173ffffffffffffffffffffffffffffffffffffffff168373ffffffffffffffffffffffffffffffffffffffff167f8c5be1e5ebec7d5bd14f71427d1e84f3dd0314c0f7b2291e5b200ac8c7c3b92583604051610c1b91906115a1565b60405180910390a3505050565b6000610c34848461076d565b90507fffffffffffffffffffffffffffffffffffffffffffffffffffffffffffffffff8114610cae5781811015610ca0576040517f08c379a0000000000000000000000000000000000000000000000000000000008152600401610c9790611b5c565b60405180910390fd5b610cad8484848403610a5d565b5b50505050565b600073ffffffffffffffffffffffffffffffffffffffff168373ffffffffffffffffffffffffffffffffffffffff161415610d24576040517f08c379a0000000000000000000000000000000000000000000000000000000008152600401610d1b90611bee565b60405180910390fd5b600073ffffffffffffffffffffffffffffffffffffffff168273ffffffffffffffffffffffffffffffffffffffff161415610d94576040517f08c379a0000000000000000000000000000000000000000000000000000000008152600401610d8b90611c80565b60405180910390fd5b610d9f838383611318565b60008060008573ffffffffffffffffffffffffffffffffffffffff1673ffffffffffffffffffffffffffffffffffffffff16815260200190815260200160002054905081811015610e25576040517f08c379a0000000000000000000000000000000000000000000000000000000008152600401610e1c90611d12565b60405180910390fd5b8181036000808673ffffffffffffffffffffffffffffffffffffffff1673ffffffffffffffffffffffffffffffffffffffff16815260200190815260200160002081905550816000808573ffffffffffffffffffffffffffffffffffffffff1673ffffffffffffffffffffffffffffffffffffffff168152602001908152602001600020600082825401925050819055508273ffffffffffffffffffffffffffffffffffffffff168473ffffffffffffffffffffffffffffffffffffffff167fddf252ad1be2c89b69c2b068fc378daa952ba7f163c4a11628f55a4df523b3ef84604051610f1391906115a1565b60405180910390a3610f26848484611330565b50505050565b610f34610a55565b73ffffffffffffffffffffffffffffffffffffffff16610f52610617565b73ffffffffffffffffffffffffffffffffffffffff1614610fa8576040517f08c379a0000000000000000000000000000000000000000000000000000000008152600401610f9f90611d7e565b60405180910390fd5b565b610fb2611335565b6000600560006101000a81548160ff0219169083151502179055507f5db9ee0a495bf2e6ff9c91a7834c1ba4fdd244a5e8aa4e537bd38aeae4b073aa610ff6610a55565b60405161100391906116af565b60405180910390a1565b61101e611018610a55565b826110e7565b50565b6000600560019054906101000a900473ffffffffffffffffffffffffffffffffffffffff16905081600560016101000a81548173ffffffffffffffffffffffffffffffffffffffff021916908373ffffffffffffffffffffffffffffffffffffffff1602179055508173ffffffffffffffffffffffffffffffffffffffff168173ffffffffffffffffffffffffffffffffffffffff167f8be0079c531659141344cd1fd0a4f28419497f9722a3daafe3b4186f6b6457e060405160405180910390a35050565b600073ffffffffffffffffffffffffffffffffffffffff168273ffffffffffffffffffffffffffffffffffffffff161415611157576040517f08c379a000000000000000000000000000000000000000000000000000000000815260040161114e90611e10565b60405180910390fd5b61116382600083611318565b60008060008473ffffffffffffffffffffffffffffffffffffffff1673ffffffffffffffffffffffffffffffffffffffff168152602001908152602001600020549050818110156111e9576040517f08c379a00000000000000000000000000000000000000000000000000000000081526004016111e090611ea2565b60405180910390fd5b8181036000808573ffffffffffffffffffffffffffffffffffffffff1673ffffffffffffffffffffffffffffffffffffffff1681526020019081526020016000208190555081600260008282540392505081905550600073ffffffffffffffffffffffffffffffffffffffff168373ffffffffffffffffffffffffffffffffffffffff167fddf252ad1be2c89b69c2b068fc378daa952ba7f163c4a11628f55a4df523b3ef8460405161129c91906115a1565b60405180910390a36112b083600084611330565b505050565b6112bd61137e565b6001600560006101000a81548160ff0219169083151502179055507f62e78cea01bee320cd4e420270b5ea74000d11b0c9f74754ebdbfc544b05a258611301610a55565b60405161130e91906116af565b60405180910390a1565b61132061137e565b61132b838383610a39565b505050565b505050565b61133d61057a565b61137c576040517f08c379a000000000000000000000000000000000000000000000000000000000815260040161137390611f0e565b60405180910390fd5b565b61138661057a565b156113c6576040517f08c379a00000000000000000000000000000000000000000000000000000000081526004016113bd90611f7a565b60405180910390fd5b565b600081519050919050565b600082825260208201905092915050565b60005b838110156114025780820151818401526020810190506113e7565b83811115611411576000848401525b50505050565b6000601f19601f8301169050919050565b6000611433826113c8565b61143d81856113d3565b935061144d8185602086016113e4565b61145681611417565b840191505092915050565b6000602082019050818103600083015261147b8184611428565b905092915050565b600080fd5b600073ffffffffffffffffffffffffffffffffffffffff82169050919050565b60006114b382611488565b9050919050565b6114c3816114a8565b81146114ce57600080fd5b50565b6000813590506114e0816114ba565b92915050565b6000819050919050565b6114f9816114e6565b811461150457600080fd5b50565b600081359050611516816114f0565b92915050565b6000806040838503121561153357611532611483565b5b6000611541858286016114d1565b925050602061155285828601611507565b9150509250929050565b60008115159050919050565b6115718161155c565b82525050565b600060208201905061158c6000830184611568565b92915050565b61159b816114e6565b82525050565b60006020820190506115b66000830184611592565b92915050565b6000806000606084860312156115d5576115d4611483565b5b60006115e3868287016114d1565b93505060206115f4868287016114d1565b925050604061160586828701611507565b9150509250925092565b600060ff82169050919050565b6116258161160f565b82525050565b6000602082019050611640600083018461161c565b92915050565b60006020828403121561165c5761165b611483565b5b600061166a84828501611507565b91505092915050565b60006020828403121561168957611688611483565b5b6000611697848285016114d1565b91505092915050565b6116a9816114a8565b82525050565b60006020820190506116c460008301846116a0565b92915050565b600080604083850312156116e1576116e0611483565b5b60006116ef858286016114d1565b9250506020611700858286016114d1565b9150509250929050565b7f4e487b7100000000000000000000000000000000000000000000000000000000600052602260045260246000fd5b6000600282049050600182168061175157607f821691505b602082108114156117655761176461170a565b5b50919050565b7f4e487b7100000000000000000000000000000000000000000000000000000000600052601160045260246000fd5b60006117a5826114e6565b91506117b0836114e6565b9250827fffffffffffffffffffffffffffffffffffffffffffffffffffffffffffffffff038211156117e5576117e461176b565b5b828201905092915050565b7f45524332303a2064656372656173656420616c6c6f77616e63652062656c6f7760008201527f207a65726f000000000000000000000000000000000000000000000000000000602082015250565b600061184c6025836113d3565b9150611857826117f0565b604082019050919050565b6000602082019050818103600083015261187b8161183f565b9050919050565b7f4f776e61626c653a206e6577206f776e657220697320746865207a65726f206160008201527f6464726573730000000000000000000000000000000000000000000000000000602082015250565b60006118de6026836113d3565b91506118e982611882565b604082019050919050565b6000602082019050818103600083015261190d816118d1565b9050919050565b7f45524332304361707065643a2063617020657863656564656400000000000000600082015250565b600061194a6019836113d3565b915061195582611914565b602082019050919050565b600060208201905081810360008301526119798161193d565b9050919050565b7f45524332303a206d696e7420746f20746865207a65726f206164647265737300600082015250565b60006119b6601f836113d3565b91506119c182611980565b602082019050919050565b600060208201905081810360008301526119e5816119a9565b9050919050565b7f45524332303a20617070726f76652066726f6d20746865207a65726f2061646460008201527f7265737300000000000000000000000000000000000000000000000000000000602082015250565b6000611a486024836113d3565b9150611a53826119ec565b604082019050919050565b60006020820190508181036000830152611a7781611a3b565b9050919050565b7f45524332303a20617070726f766520746f20746865207a65726f20616464726560008201527f7373000000000000000000000000000000000000000000000000000000000000602082015250565b6000611ada6022836113d3565b9150611ae582611a7e565b604082019050919050565b60006020820190508181036000830152611b0981611acd565b9050919050565b7f45524332303a20696e73756666696369656e7420616c6c6f77616e6365000000600082015250565b6000611b46601d836113d3565b9150611b5182611b10565b602082019050919050565b60006020820190508181036000830152611b7581611b39565b9050919050565b7f45524332303a207472616e736665722066726f6d20746865207a65726f20616460008201527f6472657373000000000000000000000000000000000000000000000000000000602082015250565b6000611bd86025836113d3565b9150611be382611b7c565b604082019050919050565b60006020820190508181036000830152611c0781611bcb565b9050919050565b7f45524332303a207472616e7366657220746f20746865207a65726f206164647260008201527f6573730000000000000000000000000000000000000000000000000000000000602082015250565b6000611c6a6023836113d3565b9150611c7582611c0e565b604082019050919050565b60006020820190508181036000830152611c9981611c5d565b9050919050565b7f45524332303a207472616e7366657220616d6f756e742065786365656473206260008201527f616c616e63650000000000000000000000000000000000000000000000000000602082015250565b6000611cfc6026836113d3565b9150611d0782611ca0565b604082019050919050565b60006020820190508181036000830152611d2b81611cef565b9050919050565b7f4f776e61626c653a2063616c6c6572206973206e6f7420746865206f776e6572600082015250565b6000611d686020836113d3565b9150611d7382611d32565b602082019050919050565b60006020820190508181036000830152611d9781611d5b565b9050919050565b7f45524332303a206275726e2066726f6d20746865207a65726f2061646472657360008201527f7300000000000000000000000000000000000000000000000000000000000000602082015250565b6000611dfa6021836113d3565b9150611e0582611d9e565b604082019050919050565b60006020820190508181036000830152611e2981611ded565b9050919050565b7f45524332303a206275726e20616d6f756e7420657863656564732062616c616e60008201527f6365000000000000000000000000000000000000000000000000000000000000602082015250565b6000611e8c6022836113d3565b9150611e9782611e30565b604082019050919050565b60006020820190508181036000830152611ebb81611e7f565b9050919050565b7f5061757361626c653a206e6f7420706175736564000000000000000000000000600082015250565b6000611ef86014836113d3565b9150611f0382611ec2565b602082019050919050565b60006020820190508181036000830152611f2781611eeb565b9050919050565b7f5061757361626c653a2070617573656400000000000000000000000000000000600082015250565b6000611f646010836113d3565b9150611f6f82611f2e565b602082019050919050565b60006020820190508181036000830152611f9381611f57565b905091905056fea26469706673582212207e42a5ccb4bd303e526ab4d7718897c64e863db8f3b94211357671e64527096e64736f6c63430008090033",
  "linkReferences": {},
  "deployedLinkReferences": {}
}